---
source_path: /home/jake/.edwinpai/disciplines/semantos/state/semantos-core-repo/core/cell-engine/test-vectors/checksig-p2pkh.json
source_type: folder
memory_type: semantic_memory
ingested_at: 2026-06-13T06:27:17.992474+00:00
---

# core/cell-engine/test-vectors/checksig-p2pkh.json

```json
{
  "description": "Manually-constructed BSV P2PKH spend with BIP-143 sighash",
  "lockingScript": "76a914d2d9b9ef2b91d89114ece656162f81f8172af18c88ac",
  "unlockingScript": "473044022006ec85ca86d32a2006cd3aee10ec92adcd17b81d2b094a55cbbfe7e64a301bdd022037334c28da65df6231c584e8754ed8f3ce45d184cff36180b464c1064cc1ed7a412102891a00eccfcb8999618bd9db7d3ca4c9e115ed61fa5b756d49fd0718b324c768",
  "rawSpendingTx": "01000000011207cb28c2ec63560ce1053433dd29fe9aabdfb8d1647c25f5b2abfdd4d088be000000006a473044022006ec85ca86d32a2006cd3aee10ec92adcd17b81d2b094a55cbbfe7e64a301bdd022037334c28da65df6231c584e8754ed8f3ce45d184cff36180b464c1064cc1ed7a412102891a00eccfcb8999618bd9db7d3ca4c9e115ed61fa5b756d49fd0718b324c768ffffffff0168bf0000000000001976a914d2d9b9ef2b91d89114ece656162f81f8172af18c88ac00000000",
  "prevoutValue": 50000,
  "sequence": 4294967295,
  "locktime": 0,
  "txVersion": 1,
  "sighashPreimage": "010000000177a59e57d05b13a19e52899707a6a05a73c41acc412703eca673913317080c3bb13029ce7b1f559ef5e747fcac439f1455a2ec7c5f09b72290795e706650441207cb28c2ec63560ce1053433dd29fe9aabdfb8d1647c25f5b2abfdd4d088be000000001976a914d2d9b9ef2b91d89114ece656162f81f8172af18c88ac50c3000000000000ffffffff02392d27fe47dd018eb0b172ca19e236abd2a072b082836c8e761019d483049f0000000041000000",
  "sighash": "f93c854ffe35aabd302371d7ee110015ec404ca730ac38373b21624ec4a3f65a",
  "signature": "3044022006ec85ca86d32a2006cd3aee10ec92adcd17b81d2b094a55cbbfe7e64a301bdd022037334c28da65df6231c584e8754ed8f3ce45d184cff36180b464c1064cc1ed7a",
  "hashtypeByte": 65,
  "publicKey": "02891a00eccfcb8999618bd9db7d3ca4c9e115ed61fa5b756d49fd0718b324c768",
  "expectedResult": true
}

```
